:020000040000FA
:1000000080020020A1020000A9020000AB02000053
:10001000AD020000AF020000B102000000000000CD
:10002000000000000000000000000000B30200001B
:10003000B502000000000000B7020000B902000095
:10004000BB020000BD020000BF020000C1020000B0
:10005000C3020000C5020000C7020000C902000080
:10006000CB020000CD020000CF020000D102000050
:10007000D3020000D5020000D7020000D902000020
:10008000DB020000DD020000DF020000E1020000F0
:10009000E3020000E5020000E7020000E9020000C0
:1000A000EB020000ED020000EF020000F102000090
:1000B000F3020000F5020000F7020000F902000060
:1000C000FB020000FD020000FF020000010300002F
:1000D00003030000050300000703000009030000FC
:1000E0000B0300000D0300000F03000011030000CC
:1000F000130300001503000017030000190300009C
:100100001B0300001D0300001F030000210300006B
:10011000230300002503000027030000290300003B
:100120002B0300002D0300002F030000310300000B
:1001300033030000350300003703000039030000DB
:100140003B0300003D0300003F0300005903000093
:1001500000000000000000005B0300005D030000E1
:100160005F03000061030000000000006303000063
:100170006503000067030000690300006B030000D3
:100180006D0300006F0300007103000073030000A3
:100190007503000077030000790300007B03000073
:1001A0007D0300007F030000810300008303000043
:1001B0008503000087030000890300008B03000013
:1001C0008D0300008F0300009103000093030000E3
:1001D0009503000097030000990300009B030000B3
:1001E0009D0300009F030000A1030000A303000083
:1001F000A5030000A7030000A9030000AB03000053
:1002000000F002F800F03CF80AA090E8000C8244EC
:100210008344AAF10107DA4501D100F031F8AFF2C9
:10022000090EBAE80F0013F0010F18BFFB1A43F0D4
:1002300001031847980E0000B80E0000103A24BFC2
:1002400078C878C1FAD8520724BF30C830C144BF3B
:1002500004680C607047000000230024002500267D
:10026000103A28BF78C1FBD8520728BF30C148BF19
:100270000B6070471FB500F0E5FC1FBD10B510BD49
:1002800000F0A7F81146FFF7F5FF00F09BFC00F027
:10029000C5F803B4FFF7F2FF03BC00F0CDF800008F
:1002A0004548804745480047FEE7FEE7FEE7FEE792
:1002B000FEE7FEE7FEE7FEE7FEE7FEE7FEE7FEE716
:1002C000FEE7FEE7FEE7FEE7FEE7FEE7FEE7FEE706
:1002D000FEE7FEE7FEE7FEE7FEE7FEE7FEE7FEE7F6
:1002E000FEE7FEE7FEE7FEE7FEE7FEE7FEE7FEE7E6
:1002F000FEE7FEE7FEE7FEE7FEE7FEE7FEE7FEE7D6
:10030000FEE7FEE7FEE7FEE7FEE7FEE7FEE7FEE7C5
:10031000FEE7FEE7FEE7FEE7FEE7FEE7FEE7FEE7B5
:10032000FEE7FEE7FEE7FEE7FEE7FEE7FEE7FEE7A5
:10033000FEE7FEE7FEE7FEE7FEE7FEE7FEE7FEE795
:10034000FEE7FEE7FEE7FEE7FEE7FEE7FEE7FEE785
:10035000FEE7FEE7FEE7FEE7FEE7FEE7FEE7FEE775
:10036000FEE7FEE7FEE7FEE7FEE7FEE7FEE7FEE765
:10037000FEE7FEE7FEE7FEE7FEE7FEE7FEE7FEE755
:10038000FEE7FEE7FEE7FEE7FEE7FEE7FEE7FEE745
:10039000FEE7FEE7FEE7FEE7FEE7FEE7FEE7FEE735
:1003A000FEE7FEE7FEE7FEE7FEE7FEE70448054955
:1003B000034A054B70470000A50B00000102000036
:1003C00080000020800200208000002070477047DD
:1003D0007047754600F02CF8AE4605006946534656
:1003E00020F00700854618B020B5FFF7DFFFBDE815
:1003F00020404FF000064FF000074FF000084FF08C
:10040000000B21F00701AC46ACE8C009ACE8C0091C
:10041000ACE8C009ACE8C0098D46704710B5044689
:10042000AFF300802046BDE81040FFF732BF000068
:10043000004870472000002001491820ABBEFEE7AD
:10044000260002007047002100E0491C8142FCD3D5
:100450007047D0F8003412F0010F14BF0B438B43E8
:10046000C0F8003412F0020FD0F8202414BF11435A
:1004700022EA0101C0F8201470472DE9F00301269B
:100480004FF0000C0325C2F3411706FA0CF40C429E
:1004900011D0D0F8C48F4FEA4C0405FA04F928EAC9
:1004A0000908C0F8C48FD0F8C48F07FA04F448EAEA
:1004B0000404C0F8C44F0CF1010C0CF0FF0CBCF1AB
:1004C000080FE2D3D0F800C512F0010F14BF4CEAB8
:1004D000010C2CEA010CC0F800C5D0F804C512F0DC
:1004E000020F14BF4CEA010C2CEA010CC0F804C541
:1004F000D0F808C512F0040F14BF4CEA010C2CEA26
:10050000010CC0F808C5D0F818C512F0080F14BFC8
:100510004CEA010C2CEA010CC0F818C512F0100FBF
:10052000D0F83C2514BF0A438A43C0F83C25D0F8D4
:100530000C2513F0010F14BF0A438A43C0F80C25A1
:10054000D0F8102513F0020F14BF0A438A43C0F8F5
:100550001025D0F8142513F0040F14BF0A438A4362
:10056000C0F81425D0F81C2513F0080F14BF0A4357
:100570008A43C0F81C25D0F8442513F4007F14BF2B
:100580000A438A43C0F84425D0F8402513F4407F3D
:1005900014BF0A438A43C0F84025D0F82825002B11
:1005A0000CBF114322EA0101C0F82815BDE8F00391
:1005B000704700000E4AC0F30741D26E01238B4002
:1005C0001A420C4A1ABF02EBC101496852F83110B5
:1005D000020AD1F82C354FF00F0C0CFA02FC00F097
:1005E0000F0023EA0C0390401843C1F82C05704714
:1005F00000E00F40E80D000030B50C460546002233
:10060000FFF727FF21462846BDE830400823012296
:10061000FFF733BF30B50C46054608230122FFF72C
:100620002CFF21462846BDE830400122FFF711BFCC
:1006300030B50C4605460222FFF70BFF214628463F
:10064000BDE8304009230122FFF717BF30B50C4643
:1006500005460222FFF7FDFE21462846BDE8304050
:1006600008230122FFF709BF40F82120704700004E
:100670002DE9F04104460F46154600BF184800F02A
:1006800031F80028FAD100222146154800F070F810
:100690003946134800F02EF80321114800F028F8DD
:1006A00000BF0F4800F01EF80028FAD10C4800F0F7
:1006B00028F8C6B229460A4800F01CF80521084867
:1006C00000F016F800BF064800F00CF80028FAD138
:1006D000034800F016F8C6B23046BDE8F0810000CD
:1006E00000000240406810F0010018BF0120704770
:1006F0004160704781607047016A41F010010162FA
:100700007047406810F0010F05D110F0120F1CBFA8
:1007100000F01C007047002070470000036A43F09F
:1007200010030362002A14BF0E4A0F4A02EB820331
:1007300001EB830302EB820292005B1EB3FBF2F239
:10074000521EC260D0F8C02F12F0010F08BF7047D0
:10075000064A1144521CB1FBF2F1491E41F08001DE
:10076000C1607047801A0600A08601007F473701EC
:1007700042EA41010160704710B5114800F0E8F904
:1007800000BF0F4800F0F8F90028FAD00C48C01C50
:1007900000F0DEF900BF0A48C01C00F0EDF90028A7
:1007A000F9D001210748FFF735FF03210648FFF77D
:1007B00023FF0A23012203210348FFF75EFE10BD39
:1007C000050800F00050024000D0034010B51E485C
:1007D00000F0BEF91D4800F0BBF91D48FFF7EAFE26
:1007E0001C48FFF7E7FE04211B48FFF72FFF0821F5
:1007F0001948FFF71DFF0122184801681848FFF744
:100800008DFF1748FFF778FFFF220C212220FFF70A
:100810002FFF044600220D212220FFF729FF044666
:1008200000220E212220FFF723FF0446002203218D
:100830001820FFF71DFF0446FF2201211820FFF7B3
:1008400017FF044610BD0000002000F0010800F072
:1008500002080100020C01000050004004000020CA
:10086000000002402DE9F003AF4D02462868AF4B6F
:100870001840A0F18053B3F5A02359D002F03809F5
:10088000DFF8AC82C2F38414B9F1100F25D0B9F1AE
:10089000300F04BF47F230504FF400130DD04FF02B
:1008A0003800904304BF4FF40040C30105D012F05C
:1008B000380F1CBF0020034613D09E4F12F4605F18
:1008C0004FF0000618BF00222CD057F832404445A4
:1008D0007DD307EBC2025268E1E0002340461524B5
:1008E000EBE7A4F10900122822D29348D5F87CC086
:1008F0004FF04C7350F824002CF01C0C072CA8BFB0
:100900004CF0100CC5F87CC02E6D4FF4002C16F482
:10091000807FD2D1BCF1010C0AD02E6D16F4807FFD
:10092000F8D0CAE712F0380F18BFB9F1100F04D091
:10093000BDE8F0034FF000007047C2F30268DFF833
:10094000FCC14FF0000257F83290E14503D307EBAA
:10095000C202526803E0521C062AF4D33246C5F89C
:10096000C020D5F8B020DFF8D8C102EA0C0242F06E
:100970000042C5F8B020DFF8CCC1A4F109024C1E3A
:100980005CF828C0A444BCFBF1FCD5F8B0101943B6
:10099000C5F8B01008EBC80101EB41046A4902EB4D
:1009A000420201EBC40101EB82046468C5F86441B2
:1009B000D5F864416FF0FF0808EB0C2C44EA0C0CEE
:1009C000C5F864C151F82210D5F8602100E061E05B
:1009D00002F400021143C5F86011D5F86011D5F892
:1009E0006021C1F38921C2F30904D5F86421C2F35F
:1009F000042202F1010CD5F8642102F01F02521CFE
:100A0000B0FBF2F04A09C2F100084443424301EB53
:100A1000481104EB5212484302EB9020B0FBFCF06B
:100A200041080846002257F832C0844503D307EB3B
:100A3000C200466802E0521C062AF4D3C5F8C06022
:100A4000D5F8600110F4000F1DBFD5F8B00040F0DC
:100A50008040C5F8B000D5F8600104BF40F4000044
:100A6000C5F860014FF40040D5F8682112F0010F7D
:100A700002D1401E0028F7DC002808BF002148D022
:100A8000D5F8B000184340F0010040F01040C5F820
:100A9000B0003EE0521C062AFFF417AF3246C5F8FC
:100AA000C020D5F8602122F40002C5F86021D5F8F5
:100AB000B020DFF898C002EA0C0242F00042C5F80C
:100AC000B020002908BF4FF0000C0AD0B0FBF1FCA9
:100AD000BCF1000F18BFACF1010C0CF10101B0FB2F
:100AE000F1F10846002257F83240844203D307EB65
:100AF000C200466802E0521C062AF4D3C5F8C06062
:100B0000D5F8B00043EA8C22104340F00040C5F80D
:100B1000B000D5F8B00020F47000C5F8B000BDE812
:100B2000F00308467047000000E00F400000FF702F
:100B30000024F4009C100000800E000040787D012D
:100B400000FC0FE0780E0000EC0E0000FF0300EF49
:100B5000C0F307230749C0B2194401F07043C1F341
:100B6000130143EA411141EA800040F00070012284
:100B70000260704700E60F40C0F307220849C0B288
:100B8000114401F07042C1F3130142EA411141EAFC
:100B9000800040F000700068002818BF01207047F6
:100BA00000EA0F400448006840F470000249086001
:100BB000024803490860704788ED00E00024F40013
:100BC0001C000020194943F65050FFF74BFE18490E
:100BD0000860FFF7D1FDFFF7F9FD25E01548027821
:100BE00005212220FFF744FD134908700122062148
:100BF0002220FFF73DFD1049087000220121182036
:100C0000FFF736FD0C490870012211460B48FFF72B
:100C10002BFD0B48FFF717FC002201210748FFF7C7
:100C200023FD0748FFF70FFCD8E700000024F4007D
:100C300004000020080000200000002000500240B6
:100C400000350C004FF04070E1EE100A70470000D4
:100C5000004000401000000000800540100000002F
:100C600000500040110000000090054011000000FD
:100C7000006000401200000000A0054012000000CB
:100C8000007000401300000000B005401300000099
:100C9000004002401400000000C0054014000000A5
:100CA000005002402E00000000D005402E00000041
:100CB000006002402F00000000E005402F0000000F
:100CC000007002403000000000F0054030000000DD
:100CD00000D003404600000000000640460000002F
:100CE00000100640470000000020064048000000B9
:100CF000003006407F0000000040064080000000F9
:100D00000050064084000000006006408C00000097
:100D1000004000401000000000800540100000006E
:100D2000005000401100000000900540110000003C
:100D3000006000401200000000A00540120000000A
:100D4000007000401300000000B0054013000000D8
:100D5000004002401400000000C0054014000000E4
:100D6000005002402E00000000D005402E00000080
:100D7000006002402F00000000E005402F0000004E
:100D8000007002403000000000F00540300000001C
:100D900000D0034043000000000006404300000074
:100DA00000100640440000000020064045000000FE
:100DB0000030064058000000004006405900000086
:100DC000005006405C000000006006406400000027
:100DD000007006406C000000008006406D000000BE
:100DE000009006407F000000004000400080054069
:100DF00000500040009005400060004000A0054009
:100E00000070004000B005400040024000C00540B6
:100E10000050024000D005400060024000E0054064
:100E20000070024000F0054000D003400000064082
:100E3000001006400010064000200640002006403A
:100E400000300640003006400040064000400640AA
:100E5000005006400050064000600640006006401A
:100E6000007006400070064000800640008006408A
:100E7000009006400090064000688909001C4E0E54
:100E800040420F0000201C0080841E0000802500CE
:100E9000999E36000040380000093D0000803E0069
:100EA00000004B00404B4C0000204E00808D5B004A
:100EB00000C05D000080700000127A0000007D001C
:100EC00080969800001BB7000080BB00C0E8CE00F1
:100ED000647ADA000024F4000000FA0080A812010D
:100EE000002D310100366E0140787D014000000088
:100EF00000000000000100003E00080000000000AB
:100F000000010000A000000002000000000100003D
:100F10003454010000000000000100002B700600A6
:100F20000000000000010000280000000000000098
:100F30000001000027000100000000000001000087
:100F40002000000000000000000100005000000030
:100F500002000000000100001AAC000000000000C8
:100F600000010000179409000000000000010000CB
:100F700016980500000000000001000014000000A9
:100F800000000000000100001380080000000000C5
:100F900000010000A00000000800000000010000A7
:100FA0001000000000000000000100002800000008
:100FB00002000000000100004000000004000000EA
:100FC00000010000600000000000000000010000BF
:100FD0005D000C0000000000000100005000000057
:100FE00000000000000100004E00020000000000B0
:100FF0000001000041AC0100000000000001000001
:101000003C00000000000000000100003A800900E0
:10101000000000000001000030000000000000009F
:101020000001000028000000000000000001000096
:1010300027000100000000000001000023600600FE
:101040000000000000010000216008000000000016
:10105000000100001E000000000000000001000070
:101060001DC004000000000000010000500000004E
:101070000200000000010000180000000000000055
:10108000000100001400000000000000000100004A
:101090006000000004000000000100000024F400D3
:1010A00030003000005A62029100910000879303E3
:1010B000D200D20000B4C4041301130100E1F5050D
:1010C00054015401000E270795019501EC10000012
:1010D00000000020200000003C0200000C11000075
:1010E0002000002060020000580200000000000004
:1010F000000000003F065B4F666D7D077F6F777CC9
:0C110000585E79715C0000000024F400CF
:0400000500000201F4
:00000001FF
